:03000000020006F5
:03005F0002000399
:0300030002047282
:20006200AE82AF837C007D00C3EC9EED9F50147A0E7B001ABAFF011BEA4B70F70CBC00E8A8
:200082000D80E522AF827E00C2828F05530580ED24FF92808F05ED2DFFD2820EBE08004034
:2000A200E722AF82C2817E008F82C007C006120086852182120086D006D0070EBE04004090
:2000C200E7D281227521007582091200A475210775820A1200A475210775820B1200A47558
:2000E200210175820C1200A475210075820F1200A47F017521008F82C0071200A4D0070F47
:20010200EF24F750EE22AF82C2817E008F047D007403C39CFCE49DFD8E027B00C3EA9CEBE2
:2001220064808DF063F08095F05017758200C007C006120086758200120086D006D0070E37
:2001420080CA852282C007120086D007852382C007120086D0077E00C3EE9F501775820068
:20016200C007C006120086758200120086D006D0070E80E4D28122AF82BF20157E00EE2480
:200182000BF9EE9006C693F70EBE080040F0020271BF30004041EF24C6403C7E00EE240BAC
:2001A200F98F047D00EC24D0FCED34FFC40354F8CCC403CC6CCC54F8CC6CFDEC24D6FCED3E
:2001C2003404FDEE2CF582E43DF583E493F70EBE080040C9020271BF61004040EF24854086
:2001E2003B7E00EE240BF98F047D0074A92CFC74FF3DC40354F8CCC403CC6CCC54F8CC6CFB
:20020200FDEC24D6FCED3404FDEE2CF582E43DF583E493F70EBE080040C98053BF41004053
:2002220040EF24A5403B7E00EE240BF98F047D0074E32CFC74FF3DC40354F8CCC403CC6C98
:20024200CC54F8CC6CFDEC24D6FCED3404FDEE2CF582E43DF583E493F70EBE080040C98056
:200262000E7F00EF240BF876000FBF080040F47F008F057E007407C39DFDE49EFEED250856
:20028200FDEE3509FCAE0AEF240BF9E730E7047B0180027B00EF240BF9E730E6047A0280D9
:2002A200027A00EA4203EF240BF9E730E5047A0480027A00EA4203EF240BF9E730E4047A41
:2002C2000880027A00EA4203EF240BF9E730E3047A1080027A00EA4203EF240BF9E730E20F
:2002E200047A2080027A00EA4203EF240BF9E730E1047A4080027A00EA4203EF240BF9E73D
:2003020030E0047A8080027A00EA42038D828C838EF0EB1204830FBF0800500302027322C0
:20032200AD82AE83AFF07C007B018B227523008C82C007C006C005C004C003120108D003AA
:20034200D004D005D006D0070BEB24F750DC0CBC040040D47C00BC0400505F8D828E838F8E
:20036200F01204B6FB6053750824750900750A408B82C007C006C005C004120179D004D0E0
:2003820005D006D0077B008B02EA04F522EB2424F987238C82C007C006C005C004C00312CD
:2003A2000108D003D004D005D006D0070BBB080040D50C0DBD009F0E809C2285822C85832A
:2003C2002D85F02E12049E85823185833274042531FAE43532FCE4F52FF530C3E52F9AE593
:2003E200309C400122E4F538F539C3E5389404E5396480948050547403C39538FBE49539A7
:20040200FFE52FC39BF53AE5309FF53BE5382433F9E53B3392004025AB3AAF3BC3EB95315C
:20042200EF95325018E53A252CFBE53B352DFEAF2E8B828E838FF01204B6FB80027B20A7AC
:20044200030538E4B538A30539809F75370090003375F040C004C0021203229027101200DF
:2004620062D002D004052FE4B52F0205300203DD1200C61200C69006CE75F0801203BD8012
:01048200F287
:2004D6003C666E7666663C001838181818183C003C66060C18307E003C66061C06663C00A6
:2004F6000C1C2C4C7E0C1E007E607C0606663C001C30607C66663C007E66060C1818180028
:200516003C66663C66663C003C66663E060C3800003C063E66663E0060607C6666667C0075
:20053600003C666060663C0006063E6666663E00003C667E60663C001C307C30303030003D
:20055600003E66663E063C0060607C66666666001800381818183C000C001C0C0C0C78008F
:200576006060666C786C66003818181818183C00007C6B6B6B636300007C666666666600A0
:20059600003C666666663C00007C66667C606000003E66663E060600007C666060606000FB
:2005B600003C603C06663C0030307C3030301C000066666666663E0000666666663C1800F5
:2005D6000063636B6B7F36000066663C183C6600006666663E063C00007E0C1830607E0090
:2005F600183C66667E6666007C66667C66667C003C66606060663C007C66666666667C0015
:200616007E60607C60607E007E60607C606060003C66606E66663C006666667E6666660098
:200636003C18181818183C001E0C0C0C0C6C3800666C7870786C66006060606060607E0000
:2006560063777F7F6B63630066767E7E6E6666003C66666666663C007C66667C606060000F
:200676003C666666666C36007C66667C786C66003C66603C06663C007E18181818181800EC
:200696006666666666663C0066666666663C18006363636B6B7F360066663C183C66660076
:2006B6006666663C181818007E060C1830607E0000000000000000004861707079204E65E3
:0706D60077205965617200F5
:06003500E4787FF6D8FD1F
:200013007900E94400601B7A009006DD780175A000E493F2A308B8000205A0D9F4DAF275B0
:02003300A0FF2C
:1B04830020F71130F6138883A88220F509F6A8837583002280FEF280F5F02278
:20003B007800E84400600A790175A000E4F309D8FC7800E84400600C7900900001E4F0A3C3
:04005B00D8FCD9FAFA
:18049E00AA82AB831204B66003A380F8C3E5829AF582E5839BF58322CA
:0D00060075813B1204D2E582600302000305
:1C04B60020F71430F6148883A88220F507E6A88375830022E280F7E49322E02255
:0404D200758200220D
:00000001FF
